{
  "contractName": "VoteFactory",
  "abi": [
    {
      "constant": true,
      "inputs": [
        {
          "name": "",
          "type": "uint256"
        }
      ],
      "name": "allPublicContract",
      "outputs": [
        {
          "name": "",
          "type": "address"
        }
      ],
      "payable": false,
      "stateMutability": "view",
      "type": "function"
    },
    {
      "constant": true,
      "inputs": [
        {
          "name": "",
          "type": "address"
        },
        {
          "name": "",
          "type": "uint256"
        }
      ],
      "name": "ownerToContracts",
      "outputs": [
        {
          "name": "",
          "type": "address"
        }
      ],
      "payable": false,
      "stateMutability": "view",
      "type": "function"
    },
    {
      "inputs": [],
      "payable": false,
      "stateMutability": "nonpayable",
      "type": "constructor"
    },
    {
      "constant": false,
      "inputs": [
        {
          "name": "_candidates",
          "type": "bytes32[]"
        },
        {
          "name": "_conditions",
          "type": "bytes32[]"
        },
        {
          "name": "_voteTitle",
          "type": "string"
        },
        {
          "name": "_voteChairman",
          "type": "string"
        },
        {
          "name": "_timeStart",
          "type": "uint256"
        },
        {
          "name": "_timeEnd",
          "type": "uint256"
        },
        {
          "name": "_publicContract",
          "type": "bool"
        }
      ],
      "name": "createVote",
      "outputs": [],
      "payable": false,
      "stateMutability": "nonpayable",
      "type": "function"
    },
    {
      "constant": true,
      "inputs": [],
      "name": "getContractCount",
      "outputs": [
        {
          "name": "",
          "type": "uint256"
        }
      ],
      "payable": false,
      "stateMutability": "view",
      "type": "function"
    },
    {
      "constant": true,
      "inputs": [
        {
          "name": "_owner",
          "type": "address"
        }
      ],
      "name": "getContrtatCount",
      "outputs": [
        {
          "name": "",
          "type": "uint256"
        }
      ],
      "payable": false,
      "stateMutability": "view",
      "type": "function"
    }
  ],
  "bytecode": "0x608060405234801561001057600080fd5b50336000806101000a81548173ffffffffffffffffffffffffffffffffffffffff021916908373ffffffffffffffffffffffffffffffffffffffff16021790555061107a806100606000396000f30060806040526004361061006d576000357c0100000000000000000000000000000000000000000000000000000000900463ffffffff168063288a2b3114610072578063545fa80a146100c9578063589ae3b8146101365780636a1972bd1461028b5780639399869d14610318575b600080fd5b34801561007e57600080fd5b506100b3600480360381019080803573ffffffffffffffffffffffffffffffffffffffff169060200190929190505050610343565b6040518082815260200191505060405180910390f35b3480156100d557600080fd5b506100f46004803603810190808035906020019092919050505061038f565b604051808273ffffffffffffffffffffffffffffffffffffffff1673ffffffffffffffffffffffffffffffffffffffff16815260200191505060405180910390f35b34801561014257600080fd5b506102896004803603810190808035906020019082018035906020019080806020026020016040519081016040528093929190818152602001838360200280828437820191505050505050919291929080359060200190820180359060200190808060200260200160405190810160405280939291908181526020018383602002808284378201915050505050509192919290803590602001908201803590602001908080601f0160208091040260200160405190810160405280939291908181526020018383808284378201915050505050509192919290803590602001908201803590602001908080601f016020809104026020016040519081016040528093929190818152602001838380828437820191505050505050919291929080359060200190929190803590602001909291908035151590602001909291905050506103cd565b005b34801561029757600080fd5b506102d6600480360381019080803573ffffffffffffffffffffffffffffffffffffffff169060200190929190803590602001909291905050506106aa565b604051808273ffffffffffffffffffffffffffffffffffffffff1673ffffffffffffffffffffffffffffffffffffffff16815260200191505060405180910390f35b34801561032457600080fd5b5061032d6106f7565b6040518082815260200191505060405180910390f35b6000600260003373ffffffffffffffffffffffffffffffffffffffff1673ffffffffffffffffffffffffffffffffffffffff168152602001908152602001600020805490509050919050565b60018181548110151561039e57fe5b906000526020600020016000915054906101000a900473ffffffffffffffffffffffffffffffffffffffff1681565b60008088511115156103de57600080fd5b878787878787876103ed610704565b80806020018060200180602001806020018881526020018781526020018615151515815260200185810385528c818151815260200191508051906020019060200280838360005b8381101561044f578082015181840152602081019050610434565b5050505090500185810384528b818151815260200191508051906020019060200280838360005b83811015610491578082015181840152602081019050610476565b5050505090500185810383528a818151815260200191508051906020019080838360005b838110156104d05780820151818401526020810190506104b5565b50505050905090810190601f1680156104fd5780820380516001836020036101000a031916815260200191505b50858103825289818151815260200191508051906020019080838360005b8381101561053657808201518184015260208101905061051b565b50505050905090810190601f1680156105635780820380516001836020036101000a031916815260200191505b509b505050505050505050505050604051809103906000f08015801561058d573d6000803e3d6000fd5b50905081156105fd5760018190806001815401808255809150509060018203906000526020600020016000909192909190916101000a81548173ffffffffffffffffffffffffffffffffffffffff021916908373ffffffffffffffffffffffffffffffffffffffff160217905550505b600260003373ffffffffffffffffffffffffffffffffffffffff1673ffffffffffffffffffffffffffffffffffffffff1681526020019081526020016000208190806001815401808255809150509060018203906000526020600020016000909192909190916101000a81548173ffffffffffffffffffffffffffffffffffffffff021916908373ffffffffffffffffffffffffffffffffffffffff160217905550505050505050505050565b6002602052816000526040600020818154811015156106c557fe5b906000526020600020016000915091509054906101000a900473ffffffffffffffffffffffffffffffffffffffff1681565b6000600180549050905090565b60405161093a80610715833901905600608060405234801561001057600080fd5b5060405161093a38038061093a833981018060405281019080805182019291906020018051820192919060200180518201929190602001805182019291906020018051906020019092919080519060200190929190805190602001909291905050506000336000806101000a81548173ffffffffffffffffffffffffffffffffffffffff021916908373ffffffffffffffffffffffffffffffffffffffff16021790555086600390805190602001906100ca929190610196565b50836006819055508260078190555081600460006101000a81548160ff021916908315150217905550600090505b875181101561018957600560408051908101604052808a8481518110151561011c57fe5b90602001906020020151600019168152602001600081525090806001815401808255809150509060018203906000526020600020906002020160009091929091909150600082015181600001906000191690556020820151816001015550505080806001019150506100f8565b505050505050505061020e565b8280548282559060005260206000209081019282156101d8579160200282015b828111156101d75782518290600019169055916020019190600101906101b6565b5b5090506101e591906101e9565b5090565b61020b91905b808211156102075760008160009055506001016101ef565b5090565b90565b61071d8061021d6000396000f30060806040526004361061008e576000357c0100000000000000000000000000000000000000000000000000000000900463ffffffff16806326c50007146100935780632e4176cf146100dc5780633477ee2e1461013357806335b8e8201461018357806368bb8bb6146101d3578063bb9aa28f1461020e578063fd74d29414610239578063fda263e814610264575b600080fd5b34801561009f57600080fd5b506100be6004803603810190808035906020019092919050505061028f565b60405180826000191660001916815260200191505060405180910390f35b3480156100e857600080fd5b506100f16102b2565b604051808273ffffffffffffffffffffffffffffffffffffffff1673ffffffffffffffffffffffffffffffffffffffff16815260200191505060405180910390f35b34801561013f57600080fd5b5061015e600480360381019080803590602001909291905050506102d7565b6040518083600019166000191681526020018281526020019250505060405180910390f35b34801561018f57600080fd5b506101ae6004803603810190808035906020019092919050505061030a565b6040518083600019166000191681526020018281526020019250505060405180910390f35b3480156101df57600080fd5b5061020c600480360381019080803590602001909291908035600019169060200190929190505050610358565b005b34801561021a57600080fd5b506102236106d8565b6040518082815260200191505060405180910390f35b34801561024557600080fd5b5061024e6106e5565b6040518082815260200191505060405180910390f35b34801561027057600080fd5b506102796106eb565b6040518082815260200191505060405180910390f35b60038181548110151561029e57fe5b906000526020600020016000915090505481565b6000809054906101000a900473ffffffffffffffffffffffffffffffffffffffff1681565b6005818154811015156102e657fe5b90600052602060002090600202016000915090508060000154908060010154905082565b60008060058381548110151561031c57fe5b90600052602060002090600202016000015460058481548110151561033d57fe5b90600052602060002090600202016001015491509150915091565b6000600654421115156103d3576040517f08c379a000000000000000000000000000000000000000000000000000000000815260040180806020018281038252601d8152602001807f766f74696e6720686176656e74207374617274656420796574202e2e2e00000081525060200191505060405180910390fd5b6007544210151561044c576040517f08c379a000000000000000000000000000000000000000000000000000000000815260040180806020018281038252601d8152602001807f766f74696e67206861766520616c726561647920656e646564202e2e2e00000081525060200191505060405180910390fd5b600160003373ffffffffffffffffffffffffffffffffffffffff1673ffffffffffffffffffffffffffffffffffffffff16815260200190815260200160002060009054906101000a900460ff1615151561050e576040517f08c379a000000000000000000000000000000000000000000000000000000000815260040180806020018281038252600e8152602001807f416c726561647920766f7465642e00000000000000000000000000000000000081525060200191505060405180910390fd5b600090506003805490508110156106d357816000191660038281548110151561053357fe5b906000526020600020015460001916141561061c57600160058481548110151561055957fe5b90600052602060002090600202016001016000828254019250508190555060018060003373ffffffffffffffffffffffffffffffffffffffff1673ffffffffffffffffffffffffffffffffffffffff16815260200190815260200160002060006101000a81548160ff02191690831515021790555081600019163373ffffffffffffffffffffffffffffffffffffffff16847fb9afbb28368d63bc7aa0c3535671c3e7d278304b5deaf9d66482a3d11c952b9c60405160405180910390a46106d3565b81600019163373ffffffffffffffffffffffffffffffffffffffff16847fc23713b270362442eaee26a1ab7875486103ffe07fec912f438ed4f14dc02f1160405160405180910390a46040517f08c379a00000000000000000000000000000000000000000000000000000000081526004018080602001828103825260178152602001807f636f6e646974696f6e206973206e6f7420666f756e642000000000000000000081525060200191505060405180910390fd5b505050565b6000600580549050905090565b60065481565b600754815600a165627a7a7230582063f949bcdfeeb52f4a80954009de2cc370100d9fdb8aaf11e825cbec127ac4260029a165627a7a723058209b545884b6c3a02e26c1dc84264cfb768864071bbfd74e66d8e5c7230da061c30029",
  "source": "pragma solidity ^0.4.24;\n\nimport './Vote.sol';\n\ncontract VoteFactory { \n    \n    address admin;\n\taddress[] public allPublicContract;\n\n\tmapping(address => address[]) public ownerToContracts;\n\n\tconstructor(){\n\t\tadmin = msg.sender;\n\t}\n\t\n\tfunction createVote(bytes32[] _candidates, bytes32[] _conditions, string _voteTitle, string _voteChairman, uint _timeStart, uint _timeEnd,  bool _publicContract){\n        require(_candidates.length > 0);\n        \n        Vote c = new Vote(_candidates, _conditions, _voteTitle, _voteChairman, _timeStart, _timeEnd, _publicContract);\n        if (_publicContract) {\n            allPublicContract.push(c);\n        }\n        \n        ownerToContracts[msg.sender].push(c);\n    }\n\n    function getContractCount() constant public returns(uint) {\n        return allPublicContract.length;\n    }\n\n    function getContrtatCount(address _owner) constant public returns(uint) {\n        return ownerToContracts[msg.sender].length;\n    }\n}",
  "sourcePath": "/home/nick/Projects/vote_project/contracts/VoteFactory.sol",
  "compiler": {
    "name": "solc",
    "version": "0.4.24+commit.e67f0147.Emscripten.clang"
  },
  "schemaVersion": "2.0.1",
  "updatedAt": "2018-09-10T17:05:38.876Z"
}