{
  "contractName": "Vote",
  "abi": [
    {
      "constant": true,
      "inputs": [
        {
          "name": "",
          "type": "uint256"
        }
      ],
      "name": "conditions",
      "outputs": [
        {
          "name": "",
          "type": "bytes32"
        }
      ],
      "payable": false,
      "stateMutability": "view",
      "type": "function"
    },
    {
      "constant": true,
      "inputs": [],
      "name": "chairperson",
      "outputs": [
        {
          "name": "",
          "type": "address"
        }
      ],
      "payable": false,
      "stateMutability": "view",
      "type": "function"
    },
    {
      "constant": true,
      "inputs": [
        {
          "name": "",
          "type": "uint256"
        }
      ],
      "name": "candidates",
      "outputs": [
        {
          "name": "name",
          "type": "bytes32"
        },
        {
          "name": "voteCount",
          "type": "uint256"
        }
      ],
      "payable": false,
      "stateMutability": "view",
      "type": "function"
    },
    {
      "constant": true,
      "inputs": [],
      "name": "timeStart",
      "outputs": [
        {
          "name": "",
          "type": "uint256"
        }
      ],
      "payable": false,
      "stateMutability": "view",
      "type": "function"
    },
    {
      "constant": true,
      "inputs": [],
      "name": "timeEnd",
      "outputs": [
        {
          "name": "",
          "type": "uint256"
        }
      ],
      "payable": false,
      "stateMutability": "view",
      "type": "function"
    },
    {
      "inputs": [
        {
          "name": "_candidates",
          "type": "bytes32[]"
        },
        {
          "name": "_conditions",
          "type": "bytes32[]"
        },
        {
          "name": "_voteTitle",
          "type": "string"
        },
        {
          "name": "_voteChairman",
          "type": "string"
        },
        {
          "name": "_timeStart",
          "type": "uint256"
        },
        {
          "name": "_timeEnd",
          "type": "uint256"
        },
        {
          "name": "_publicContract",
          "type": "bool"
        }
      ],
      "payable": false,
      "stateMutability": "nonpayable",
      "type": "constructor"
    },
    {
      "anonymous": false,
      "inputs": [
        {
          "indexed": true,
          "name": "proposal",
          "type": "uint256"
        },
        {
          "indexed": true,
          "name": "voter",
          "type": "address"
        },
        {
          "indexed": true,
          "name": "condition",
          "type": "bytes32"
        }
      ],
      "name": "BadVoting",
      "type": "event"
    },
    {
      "anonymous": false,
      "inputs": [
        {
          "indexed": true,
          "name": "proposal",
          "type": "uint256"
        },
        {
          "indexed": true,
          "name": "voter",
          "type": "address"
        },
        {
          "indexed": true,
          "name": "condition",
          "type": "bytes32"
        }
      ],
      "name": "GoodVoting",
      "type": "event"
    },
    {
      "constant": false,
      "inputs": [
        {
          "name": "proposal",
          "type": "uint256"
        },
        {
          "name": "_condition",
          "type": "bytes32"
        }
      ],
      "name": "vote",
      "outputs": [],
      "payable": false,
      "stateMutability": "nonpayable",
      "type": "function"
    },
    {
      "constant": true,
      "inputs": [],
      "name": "getCandidatesCount",
      "outputs": [
        {
          "name": "",
          "type": "uint256"
        }
      ],
      "payable": false,
      "stateMutability": "view",
      "type": "function"
    },
    {
      "constant": true,
      "inputs": [
        {
          "name": "_index",
          "type": "uint256"
        }
      ],
      "name": "getCandidate",
      "outputs": [
        {
          "name": "",
          "type": "bytes32"
        },
        {
          "name": "",
          "type": "uint256"
        }
      ],
      "payable": false,
      "stateMutability": "view",
      "type": "function"
    }
  ],
  "bytecode": "0x608060405234801561001057600080fd5b5060405161093a38038061093a833981018060405281019080805182019291906020018051820192919060200180518201929190602001805182019291906020018051906020019092919080519060200190929190805190602001909291905050506000336000806101000a81548173ffffffffffffffffffffffffffffffffffffffff021916908373ffffffffffffffffffffffffffffffffffffffff16021790555086600390805190602001906100ca929190610196565b50836006819055508260078190555081600460006101000a81548160ff021916908315150217905550600090505b875181101561018957600560408051908101604052808a8481518110151561011c57fe5b90602001906020020151600019168152602001600081525090806001815401808255809150509060018203906000526020600020906002020160009091929091909150600082015181600001906000191690556020820151816001015550505080806001019150506100f8565b505050505050505061020e565b8280548282559060005260206000209081019282156101d8579160200282015b828111156101d75782518290600019169055916020019190600101906101b6565b5b5090506101e591906101e9565b5090565b61020b91905b808211156102075760008160009055506001016101ef565b5090565b90565b61071d8061021d6000396000f30060806040526004361061008e576000357c0100000000000000000000000000000000000000000000000000000000900463ffffffff16806326c50007146100935780632e4176cf146100dc5780633477ee2e1461013357806335b8e8201461018357806368bb8bb6146101d3578063bb9aa28f1461020e578063fd74d29414610239578063fda263e814610264575b600080fd5b34801561009f57600080fd5b506100be6004803603810190808035906020019092919050505061028f565b60405180826000191660001916815260200191505060405180910390f35b3480156100e857600080fd5b506100f16102b2565b604051808273ffffffffffffffffffffffffffffffffffffffff1673ffffffffffffffffffffffffffffffffffffffff16815260200191505060405180910390f35b34801561013f57600080fd5b5061015e600480360381019080803590602001909291905050506102d7565b6040518083600019166000191681526020018281526020019250505060405180910390f35b34801561018f57600080fd5b506101ae6004803603810190808035906020019092919050505061030a565b6040518083600019166000191681526020018281526020019250505060405180910390f35b3480156101df57600080fd5b5061020c600480360381019080803590602001909291908035600019169060200190929190505050610358565b005b34801561021a57600080fd5b506102236106d8565b6040518082815260200191505060405180910390f35b34801561024557600080fd5b5061024e6106e5565b6040518082815260200191505060405180910390f35b34801561027057600080fd5b506102796106eb565b6040518082815260200191505060405180910390f35b60038181548110151561029e57fe5b906000526020600020016000915090505481565b6000809054906101000a900473ffffffffffffffffffffffffffffffffffffffff1681565b6005818154811015156102e657fe5b90600052602060002090600202016000915090508060000154908060010154905082565b60008060058381548110151561031c57fe5b90600052602060002090600202016000015460058481548110151561033d57fe5b90600052602060002090600202016001015491509150915091565b6000600654421115156103d3576040517f08c379a000000000000000000000000000000000000000000000000000000000815260040180806020018281038252601d8152602001807f766f74696e6720686176656e74207374617274656420796574202e2e2e00000081525060200191505060405180910390fd5b6007544210151561044c576040517f08c379a000000000000000000000000000000000000000000000000000000000815260040180806020018281038252601d8152602001807f766f74696e67206861766520616c726561647920656e646564202e2e2e00000081525060200191505060405180910390fd5b600160003373ffffffffffffffffffffffffffffffffffffffff1673ffffffffffffffffffffffffffffffffffffffff16815260200190815260200160002060009054906101000a900460ff1615151561050e576040517f08c379a000000000000000000000000000000000000000000000000000000000815260040180806020018281038252600e8152602001807f416c726561647920766f7465642e00000000000000000000000000000000000081525060200191505060405180910390fd5b600090506003805490508110156106d357816000191660038281548110151561053357fe5b906000526020600020015460001916141561061c57600160058481548110151561055957fe5b90600052602060002090600202016001016000828254019250508190555060018060003373ffffffffffffffffffffffffffffffffffffffff1673ffffffffffffffffffffffffffffffffffffffff16815260200190815260200160002060006101000a81548160ff02191690831515021790555081600019163373ffffffffffffffffffffffffffffffffffffffff16847fb9afbb28368d63bc7aa0c3535671c3e7d278304b5deaf9d66482a3d11c952b9c60405160405180910390a46106d3565b81600019163373ffffffffffffffffffffffffffffffffffffffff16847fc23713b270362442eaee26a1ab7875486103ffe07fec912f438ed4f14dc02f1160405160405180910390a46040517f08c379a00000000000000000000000000000000000000000000000000000000081526004018080602001828103825260178152602001807f636f6e646974696f6e206973206e6f7420666f756e642000000000000000000081525060200191505060405180910390fd5b505050565b6000600580549050905090565b60065481565b600754815600a165627a7a7230582063f949bcdfeeb52f4a80954009de2cc370100d9fdb8aaf11e825cbec127ac4260029",
  "source": "pragma solidity ^0.4.24;\n\n\ncontract Vote {\n\n\taddress public chairperson;\n\n    struct Proposal {\n\t    bytes32 name;   // short name (up to 32 bytes)\n\t    uint voteCount; // number of accumulated votes\n    }\n\n    mapping(address => bool) alreadyVoted;\n    mapping(byte => bool) alreadyUsedConditions; \n\n\tbytes32[] public conditions;\n\tbool publicContract; \n\tProposal[] public candidates;\n\n\tuint public timeStart;\n\tuint public timeEnd;\n\n\tevent BadVoting(uint indexed proposal, address indexed voter, bytes32 indexed condition);\n\tevent GoodVoting(uint indexed proposal, address indexed voter, bytes32 indexed condition);\n\n\tconstructor(bytes32[] _candidates, bytes32[] _conditions, string _voteTitle, string _voteChairman, uint _timeStart, uint _timeEnd,  bool _publicContract) public {\n        chairperson = msg.sender;\n        conditions = _conditions;\n\n        timeStart = _timeStart;\n        timeEnd = _timeEnd;\n        publicContract = _publicContract;\n        // For each of the provided proposal names,\n        // create a new proposal object and add it\n        // to the end of the array.\n        for (uint i = 0; i < _candidates.length; i++) {\n            // `Proposal({...})` creates a temporary\n            // Proposal object and `proposals.push(...)`\n            // appends it to the end of `proposals`.\n            candidates.push(Proposal({\n                name: _candidates[i],\n                voteCount: 0\n            }));\n        }\n    }\n\n    function vote(uint proposal, bytes32 _condition) public  {\n\n \t\trequire(now  > timeStart, 'voting havent started yet ...');\n \t\trequire(now < timeEnd, 'voting have already ended ...');\n        require(!alreadyVoted[msg.sender], \"Already voted.\");\n        for (uint i =0; i< conditions.length; i++){\n        \tif (conditions[i] == _condition){\n        \t\tcandidates[proposal].voteCount += 1;\n        \t\talreadyVoted[msg.sender] = true;\n        \t\tGoodVoting(proposal,msg.sender,_condition);\n        \t\tbreak;\n        \t}\n        \telse{\n        \t\tBadVoting(proposal,msg.sender,_condition);\n        \t\trevert('condition is not found ');\n        \t}   \n        }\n        \n    }\n\n    /// @dev Computes the winning proposal taking all\n    /// previous votes into account.\n    // function winningProposal() constant public returns (uint[])  {\n    //     // uint[] winningVoteCount = 0;\n    //     uint  moreVote = 0;\n    //     uint[] winningProposal_;\n    //     uint len = 0;\n    //     for (uint p = 0; p < candidates.length; p++) {\n    //     \tif (candidates[p].voteCount == moreVote){\n    //     \t\twinningProposal_[len] = p;\n    //     \t\tlen++;\n    //     \t}\n\n    //         if (candidates[p].voteCount > moreVote) {\n    //             moreVote = candidates[p].voteCount;\n    //             winningProposal_.length = 1;\n    //             winningProposal_[0] = p;\n    //             len = 1;\n    //         }\n\n    //     }\n\n    //     return winningProposal_;\n    // }\n\n    // Calls winningProposal() function to get the index\n    // of the winner contained in the proposals array and then\n    // returns the name of the winner\n //    function winnerName() public  returns (bytes32[]){\n\t// \tbytes32[] winnerName_;\n\t// \tuint l = 0;\n\t// \tuint[] memory winnerProposal = winningProposal();\n\t// \tfor (uint k = 0; k<winnerProposal.length; k++){\n\t// \t\twinnerName_[l] = candidates[winnerProposal[k]].name;\n\t// \t\tl++;\n\t// \t}\n\t// \treturn winnerName_;\n\t// }\n\n\n    function getCandidatesCount() public constant returns(uint) {\n        return candidates.length;\n    }\t\n\n\tfunction getCandidate(uint _index) public constant returns(bytes32, uint)  {\n\t\treturn (candidates[_index].name, candidates[_index].voteCount);\n\t}\n\n\n}",
  "sourcePath": "/home/nick/Projects/vote_project/contracts/Vote.sol",
  "compiler": {
    "name": "solc",
    "version": "0.4.24+commit.e67f0147.Emscripten.clang"
  },
  "schemaVersion": "2.0.1",
  "updatedAt": "2018-09-10T17:05:38.869Z"
}